{
    "_format": "hh-sol-artifact-1",
    "contractName": "Staking",
    "sourceName": "contracts/Staking.sol",
    "abi": [
        {
            "inputs": [
                {
                    "internalType": "address",
                    "name": "stakingToken",
                    "type": "address"
                },
                {
                    "internalType": "address",
                    "name": "rewardToken",
                    "type": "address"
                }
            ],
            "stateMutability": "nonpayable",
            "type": "constructor"
        },
        {
            "inputs": [],
            "name": "ReentrancyGuardReentrantCall",
            "type": "error"
        },
        {
            "anonymous": false,
            "inputs": [
                {
                    "indexed": true,
                    "internalType": "address",
                    "name": "user",
                    "type": "address"
                },
                {
                    "indexed": true,
                    "internalType": "uint256",
                    "name": "amount",
                    "type": "uint256"
                }
            ],
            "name": "RewardsClaimed",
            "type": "event"
        },
        {
            "anonymous": false,
            "inputs": [
                {
                    "indexed": true,
                    "internalType": "address",
                    "name": "user",
                    "type": "address"
                },
                {
                    "indexed": true,
                    "internalType": "uint256",
                    "name": "amount",
                    "type": "uint256"
                }
            ],
            "name": "Staked",
            "type": "event"
        },
        {
            "anonymous": false,
            "inputs": [
                {
                    "indexed": true,
                    "internalType": "address",
                    "name": "user",
                    "type": "address"
                },
                {
                    "indexed": true,
                    "internalType": "uint256",
                    "name": "amount",
                    "type": "uint256"
                }
            ],
            "name": "Withdrawn",
            "type": "event"
        },
        {
            "inputs": [],
            "name": "REWARD_RATE",
            "outputs": [
                {
                    "internalType": "uint256",
                    "name": "",
                    "type": "uint256"
                }
            ],
            "stateMutability": "view",
            "type": "function"
        },
        {
            "inputs": [
                {
                    "internalType": "address",
                    "name": "account",
                    "type": "address"
                }
            ],
            "name": "earned",
            "outputs": [
                {
                    "internalType": "uint256",
                    "name": "",
                    "type": "uint256"
                }
            ],
            "stateMutability": "view",
            "type": "function"
        },
        {
            "inputs": [],
            "name": "getReward",
            "outputs": [],
            "stateMutability": "nonpayable",
            "type": "function"
        },
        {
            "inputs": [],
            "name": "lastUpdateTime",
            "outputs": [
                {
                    "internalType": "uint256",
                    "name": "",
                    "type": "uint256"
                }
            ],
            "stateMutability": "view",
            "type": "function"
        },
        {
            "inputs": [],
            "name": "rewardPerToken",
            "outputs": [
                {
                    "internalType": "uint256",
                    "name": "",
                    "type": "uint256"
                }
            ],
            "stateMutability": "view",
            "type": "function"
        },
        {
            "inputs": [],
            "name": "rewardPerTokenStored",
            "outputs": [
                {
                    "internalType": "uint256",
                    "name": "",
                    "type": "uint256"
                }
            ],
            "stateMutability": "view",
            "type": "function"
        },
        {
            "inputs": [
                {
                    "internalType": "address",
                    "name": "",
                    "type": "address"
                }
            ],
            "name": "rewards",
            "outputs": [
                {
                    "internalType": "uint256",
                    "name": "",
                    "type": "uint256"
                }
            ],
            "stateMutability": "view",
            "type": "function"
        },
        {
            "inputs": [],
            "name": "s_rewardToken",
            "outputs": [
                {
                    "internalType": "contract IERC20",
                    "name": "",
                    "type": "address"
                }
            ],
            "stateMutability": "view",
            "type": "function"
        },
        {
            "inputs": [],
            "name": "s_stakingToken",
            "outputs": [
                {
                    "internalType": "contract IERC20",
                    "name": "",
                    "type": "address"
                }
            ],
            "stateMutability": "view",
            "type": "function"
        },
        {
            "inputs": [
                {
                    "internalType": "uint256",
                    "name": "amount",
                    "type": "uint256"
                }
            ],
            "name": "stake",
            "outputs": [],
            "stateMutability": "nonpayable",
            "type": "function"
        },
        {
            "inputs": [
                {
                    "internalType": "address",
                    "name": "",
                    "type": "address"
                }
            ],
            "name": "stakedBalance",
            "outputs": [
                {
                    "internalType": "uint256",
                    "name": "",
                    "type": "uint256"
                }
            ],
            "stateMutability": "view",
            "type": "function"
        },
        {
            "inputs": [
                {
                    "internalType": "address",
                    "name": "",
                    "type": "address"
                }
            ],
            "name": "userRewardPerTokenPaid",
            "outputs": [
                {
                    "internalType": "uint256",
                    "name": "",
                    "type": "uint256"
                }
            ],
            "stateMutability": "view",
            "type": "function"
        },
        {
            "inputs": [
                {
                    "internalType": "uint256",
                    "name": "amount",
                    "type": "uint256"
                }
            ],
            "name": "withdraw",
            "outputs": [],
            "stateMutability": "nonpayable",
            "type": "function"
        }
    ],
    "bytecode": "0x60806040523480156200001157600080fd5b506040516200137038038062001370833981810160405281019062000037919062000133565b600160008190555081600160006101000a81548173ffffffffffffffffffffffffffffffffffffffff021916908373ffffffffffffffffffffffffffffffffffffffff16021790555080600260006101000a81548173ffffffffffffffffffffffffffffffffffffffff021916908373ffffffffffffffffffffffffffffffffffffffff16021790555050506200017a565b600080fd5b600073ffffffffffffffffffffffffffffffffffffffff82169050919050565b6000620000fb82620000ce565b9050919050565b6200010d81620000ee565b81146200011957600080fd5b50565b6000815190506200012d8162000102565b92915050565b600080604083850312156200014d576200014c620000c9565b5b60006200015d858286016200011c565b925050602062000170858286016200011c565b9150509250929050565b6111e6806200018a6000396000f3fe608060405234801561001057600080fd5b50600436106100ce5760003560e01c80636374cc001161008c578063adca9b7211610066578063adca9b7214610211578063c8f33c911461022f578063cd3daf9d1461024d578063df136d651461026b576100ce565b80636374cc00146101a75780638b876347146101c5578063a694fc3a146101f5576100ce565b80628cc262146100d35780630700037d146101035780632e1a7d4d146101335780633d18b9121461014f5780635997bb37146101595780636021726714610177575b600080fd5b6100ed60048036038101906100e89190610d1a565b610289565b6040516100fa9190610d60565b60405180910390f35b61011d60048036038101906101189190610d1a565b610378565b60405161012a9190610d60565b60405180910390f35b61014d60048036038101906101489190610da7565b610390565b005b610157610627565b005b6101616108d8565b60405161016e9190610d60565b60405180910390f35b610191600480360381019061018c9190610d1a565b6108e4565b60405161019e9190610d60565b60405180910390f35b6101af6108fc565b6040516101bc9190610e33565b60405180910390f35b6101df60048036038101906101da9190610d1a565b610922565b6040516101ec9190610d60565b60405180910390f35b61020f600480360381019061020a9190610da7565b61093a565b005b610219610bd3565b6040516102269190610e33565b60405180910390f35b610237610bf9565b6040516102449190610d60565b60405180910390f35b610255610bff565b6040516102629190610d60565b60405180910390f35b610273610c61565b6040516102809190610d60565b60405180910390f35b6000600760008373ffffffffffffffffffffffffffffffffffffffff1673ffffffffffffffffffffffffffffffffffffffff16815260200190815260200160002054600860008473ffffffffffffffffffffffffffffffffffffffff1673ffffffffffffffffffffffffffffffffffffffff16815260200190815260200160002054610313610bff565b61031d9190610e7d565b6103279190610eb1565b600660008473ffffffffffffffffffffffffffffffffffffffff1673ffffffffffffffffffffffffffffffffffffffff168152602001908152602001600020546103719190610ee5565b9050919050565b60076020528060005260406000206000915090505481565b610398610c67565b336103a1610bff565b600481905550426005819055506103b781610289565b600760008373ffffffffffffffffffffffffffffffffffffffff1673ffffffffffffffffffffffffffffffffffffffff16815260200190815260200160002081905550600454600860008373ffffffffffffffffffffffffffffffffffffffff1673ffffffffffffffffffffffffffffffffffffffff1681526020019081526020016000208190555060008211610483576040517f08c379a000000000000000000000000000000000000000000000000000000000815260040161047a90610f84565b60405180910390fd5b81600360008282546104959190610e7d565b9250508190555081600660003373ffffffffffffffffffffffffffffffffffffffff1673ffffffffffffffffffffffffffffffffffffffff16815260200190815260200160002060008282546104eb9190610e7d565b92505081905550813373ffffffffffffffffffffffffffffffffffffffff167f7084f5476618d8e60b11ef0d7d3f06914655adb8793e28ff7f018d4c76d505d560405160405180910390a36000600160009054906101000a900473ffffffffffffffffffffffffffffffffffffffff1673ffffffffffffffffffffffffffffffffffffffff1663a9059cbb33856040518363ffffffff1660e01b8152600401610595929190610fb3565b6020604051808303816000875af11580156105b4573d6000803e3d6000fd5b505050506040513d601f19601f820116820180604052508101906105d89190611014565b90508061061a576040517f08c379a00000000000000000000000000000000000000000000000000000000081526004016106119061108d565b60405180910390fd5b5050610624610cad565b50565b61062f610c67565b33610638610bff565b6004819055504260058190555061064e81610289565b600760008373ffffffffffffffffffffffffffffffffffffffff1673ffffffffffffffffffffffffffffffffffffffff16815260200190815260200160002081905550600454600860008373ffffffffffffffffffffffffffffffffffffffff1673ffffffffffffffffffffffffffffffffffffffff168152602001908152602001600020819055506000600760003373ffffffffffffffffffffffffffffffffffffffff1673ffffffffffffffffffffffffffffffffffffffff1681526020019081526020016000205490506000811161075e576040517f08c379a0000000000000000000000000000000000000000000000000000000008152600401610755906110f9565b60405180910390fd5b6000600760003373ffffffffffffffffffffffffffffffffffffffff1673ffffffffffffffffffffffffffffffffffffffff16815260200190815260200160002081905550803373ffffffffffffffffffffffffffffffffffffffff167ffc30cddea38e2bf4d6ea7d3f9ed3b6ad7f176419f4963bd81318067a4aee73fe60405160405180910390a36000600260009054906101000a900473ffffffffffffffffffffffffffffffffffffffff1673ffffffffffffffffffffffffffffffffffffffff1663a9059cbb33846040518363ffffffff1660e01b8152600401610846929190610fb3565b6020604051808303816000875af1158015610865573d6000803e3d6000fd5b505050506040513d601f19601f820116820180604052508101906108899190611014565b9050806108cb576040517f08c379a00000000000000000000000000000000000000000000000000000000081526004016108c29061108d565b60405180910390fd5b5050506108d6610cad565b565b670de0b6b3a764000081565b60066020528060005260406000206000915090505481565b600260009054906101000a900473ffffffffffffffffffffffffffffffffffffffff1681565b60086020528060005260406000206000915090505481565b610942610c67565b3361094b610bff565b6004819055504260058190555061096181610289565b600760008373ffffffffffffffffffffffffffffffffffffffff1673ffffffffffffffffffffffffffffffffffffffff16815260200190815260200160002081905550600454600860008373ffffffffffffffffffffffffffffffffffffffff1673ffffffffffffffffffffffffffffffffffffffff1681526020019081526020016000208190555060008211610a2d576040517f08c379a0000000000000000000000000000000000000000000000000000000008152600401610a2490610f84565b60405180910390fd5b8160036000828254610a3f9190610eb1565b9250508190555081600660003373ffffffffffffffffffffffffffffffffffffffff1673ffffffffffffffffffffffffffffffffffffffff1681526020019081526020016000206000828254610a959190610eb1565b92505081905550813373ffffffffffffffffffffffffffffffffffffffff167f9e71bc8eea02a63969f509818f2dafb9254532904319f9dbda79b67bd34a5f3d60405160405180910390a36000600160009054906101000a900473ffffffffffffffffffffffffffffffffffffffff1673ffffffffffffffffffffffffffffffffffffffff166323b872dd3330866040518463ffffffff1660e01b8152600401610b4193929190611119565b6020604051808303816000875af1158015610b60573d6000803e3d6000fd5b505050506040513d601f19601f82011682018060405250810190610b849190611014565b905080610bc6576040517f08c379a0000000000000000000000000000000000000000000000000000000008152600401610bbd9061108d565b60405180910390fd5b5050610bd0610cad565b50565b600160009054906101000a900473ffffffffffffffffffffffffffffffffffffffff1681565b60055481565b60008060035403610c14576004549050610c5e565b600060055442610c249190610e7d565b9050600081670de0b6b3a7640000610c3c9190610ee5565b905060035481610c4c919061117f565b600454610c599190610eb1565b925050505b90565b60045481565b600260005403610ca3576040517f3ee5aeb500000000000000000000000000000000000000000000000000000000815260040160405180910390fd5b6002600081905550565b6001600081905550565b600080fd5b600073ffffffffffffffffffffffffffffffffffffffff82169050919050565b6000610ce782610cbc565b9050919050565b610cf781610cdc565b8114610d0257600080fd5b50565b600081359050610d1481610cee565b92915050565b600060208284031215610d3057610d2f610cb7565b5b6000610d3e84828501610d05565b91505092915050565b6000819050919050565b610d5a81610d47565b82525050565b6000602082019050610d756000830184610d51565b92915050565b610d8481610d47565b8114610d8f57600080fd5b50565b600081359050610da181610d7b565b92915050565b600060208284031215610dbd57610dbc610cb7565b5b6000610dcb84828501610d92565b91505092915050565b6000819050919050565b6000610df9610df4610def84610cbc565b610dd4565b610cbc565b9050919050565b6000610e0b82610dde565b9050919050565b6000610e1d82610e00565b9050919050565b610e2d81610e12565b82525050565b6000602082019050610e486000830184610e24565b92915050565b7f4e487b7100000000000000000000000000000000000000000000000000000000600052601160045260246000fd5b6000610e8882610d47565b9150610e9383610d47565b9250828203905081811115610eab57610eaa610e4e565b5b92915050565b6000610ebc82610d47565b9150610ec783610d47565b9250828201905080821115610edf57610ede610e4e565b5b92915050565b6000610ef082610d47565b9150610efb83610d47565b9250828202610f0981610d47565b91508282048414831517610f2057610f1f610e4e565b5b5092915050565b600082825260208201905092915050565b7f416d6f756e74206d7573742062652067726561746572207468616e207a65726f600082015250565b6000610f6e602083610f27565b9150610f7982610f38565b602082019050919050565b60006020820190508181036000830152610f9d81610f61565b9050919050565b610fad81610cdc565b82525050565b6000604082019050610fc86000830185610fa4565b610fd56020830184610d51565b9392505050565b60008115159050919050565b610ff181610fdc565b8114610ffc57600080fd5b50565b60008151905061100e81610fe8565b92915050565b60006020828403121561102a57611029610cb7565b5b600061103884828501610fff565b91505092915050565b7f5472616e73666572204661696c65640000000000000000000000000000000000600082015250565b6000611077600f83610f27565b915061108282611041565b602082019050919050565b600060208201905081810360008301526110a68161106a565b9050919050565b7f4e6f207265776172647320746f20636c61696d00000000000000000000000000600082015250565b60006110e3601383610f27565b91506110ee826110ad565b602082019050919050565b60006020820190508181036000830152611112816110d6565b9050919050565b600060608201905061112e6000830186610fa4565b61113b6020830185610fa4565b6111486040830184610d51565b949350505050565b7f4e487b7100000000000000000000000000000000000000000000000000000000600052601260045260246000fd5b600061118a82610d47565b915061119583610d47565b9250826111a5576111a4611150565b5b82820490509291505056fea2646970667358221220813ff584c60a81a9cb8a9604e9643c15234eb5f4db9c2a7945d959ef923c1a7264736f6c63430008180033",
    "linkReferences": {},
    "deployedLinkReferences": {}
}